{
    "contractName": "Diamond",
    "abi": [
        {
            "inputs": [
                {
                    "internalType": "address",
                    "name": "_contractOwner",
                    "type": "address"
                },
                {
                    "internalType": "address",
                    "name": "_diamondCutFacet",
                    "type": "address"
                }
            ],
            "stateMutability": "payable",
            "type": "constructor"
        },
        {
            "inputs": [],
            "name": "EmptyCalldata",
            "type": "error"
        },
        {
            "inputs": [
                {
                    "internalType": "bytes4",
                    "name": "selector",
                    "type": "bytes4"
                }
            ],
            "name": "ImmutableFunction",
            "type": "error"
        },
        {
            "inputs": [],
            "name": "InValidFacetCutAction",
            "type": "error"
        },
        {
            "inputs": [],
            "name": "InitCallFailed",
            "type": "error"
        },
        {
            "inputs": [],
            "name": "MustBeZeroAddress",
            "type": "error"
        },
        {
            "inputs": [],
            "name": "NoCode",
            "type": "error"
        },
        {
            "inputs": [],
            "name": "NoSelectorsInFacet",
            "type": "error"
        },
        {
            "inputs": [],
            "name": "NoZeroAddress",
            "type": "error"
        },
        {
            "inputs": [],
            "name": "NonEmptyCalldata",
            "type": "error"
        },
        {
            "inputs": [
                {
                    "internalType": "bytes4",
                    "name": "selector",
                    "type": "bytes4"
                }
            ],
            "name": "NonExistentSelector",
            "type": "error"
        },
        {
            "inputs": [
                {
                    "internalType": "bytes4",
                    "name": "selector",
                    "type": "bytes4"
                }
            ],
            "name": "SameSelectorReplacement",
            "type": "error"
        },
        {
            "inputs": [
                {
                    "internalType": "bytes4",
                    "name": "selector",
                    "type": "bytes4"
                }
            ],
            "name": "SelectorExists",
            "type": "error"
        },
        {
            "stateMutability": "payable",
            "type": "fallback"
        },
        {
            "inputs": [],
            "name": "example",
            "outputs": [
                {
                    "internalType": "string",
                    "name": "",
                    "type": "string"
                }
            ],
            "stateMutability": "pure",
            "type": "function"
        },
        {
            "stateMutability": "payable",
            "type": "receive"
        }
    ],
    "bytecode": "60806040526040516200122a3803806200122a833981016040819052620000269162000d8d565b620000318262000146565b604080516001808252818301909252600091816020015b60408051606080820183526000808352602083015291810191909152815260200190600190039081620000485750506040805160018082528183019092529192506000919060208083019080368337019050509050631f931c1c60e01b81600081518110620000bb57620000bb62000dc5565b6001600160e01b031990921660209283029190910182015260408051606081019091526001600160a01b03851681529081016000815260200182815250826000815181106200010e576200010e62000dc5565b60200260200101819052506200013c82600060405180602001604052806000815250620001ca60201b60201c565b505050506200101b565b7fc8fcad8db84d3cc18b4c41d551ea0ee66dd599cde068d998e57d5e09332c132080546001600160a01b031981166001600160a01b038481169182179093556040516000805160206200120a833981519152939092169182907f8be0079c531659141344cd1fd0a4f28419497f9722a3daafe3b4186f6b6457e090600090a3505050565b60005b835181101562000391576000848281518110620001ee57620001ee62000dc5565b60200260200101516020015190506000600281111562000212576200021262000ddb565b81600281111562000227576200022762000ddb565b0362000285576200027f85838151811062000246576200024662000dc5565b60200260200101516000015186848151811062000267576200026762000dc5565b602002602001015160400151620003e060201b60201c565b6200037b565b60018160028111156200029c576200029c62000ddb565b03620002f4576200027f858381518110620002bb57620002bb62000dc5565b602002602001015160000151868481518110620002dc57620002dc62000dc5565b602002602001015160400151620005c160201b60201c565b60028160028111156200030b576200030b62000ddb565b0362000363576200027f8583815181106200032a576200032a62000dc5565b6020026020010151600001518684815181106200034b576200034b62000dc5565b602002602001015160400151620007a960201b60201c565b60405162c5e5d760e31b815260040160405180910390fd5b5080620003888162000e07565b915050620001cd565b507f8faa70878671ccd212d20771b795c50af8fd3ff6cf27f4bde57e5d4de0aeb673838383604051620003c79392919062000e77565b60405180910390a1620003db828262000886565b505050565b6000815111620004035760405163092d2fe560e41b815260040160405180910390fd5b6000805160206200120a8339815191526001600160a01b0383166200043b5760405163ddbadd5f60e01b815260040160405180910390fd5b6001600160a01b0383166000908152600182016020526040812054906001600160601b03821690036200047457620004748285620009a0565b60005b8351811015620005ba57600084828151811062000498576200049862000dc5565b6020908102919091018101516001600160e01b031981166000908152918690526040909120549091506001600160a01b03168015620004fb5760405163501e70c760e01b81526001600160e01b0319831660048201526024015b60405180910390fd5b6001600160e01b0319821660008181526020878152604080832080546001600160a01b03908116600160a01b6001600160601b038c16021782558c168085526001808c0185529285208054938401815585528385206008840401805463ffffffff60079095166004026101000a948502191660e08a901c94909402939093179092559390925287905281546001600160a01b031916179055836200059f8162000f7e565b94505050508080620005b19062000e07565b91505062000477565b5050505050565b6000815111620005e45760405163092d2fe560e41b815260040160405180910390fd5b6000805160206200120a8339815191526001600160a01b0383166200061c5760405163ddbadd5f60e01b815260040160405180910390fd5b6001600160a01b0383166000908152600182016020526040812054906001600160601b03821690036200065557620006558285620009a0565b60005b8351811015620005ba57600084828151811062000679576200067962000dc5565b6020908102919091018101516001600160e01b031981166000908152918690526040909120549091506001600160a01b039081169087168103620006dd57604051631c04188b60e31b81526001600160e01b031983166004820152602401620004f2565b620006ea858284620009f3565b6001600160e01b0319821660008181526020878152604080832080546001600160a01b03908116600160a01b6001600160601b038c16021782558c168085526001808c0185529285208054938401815585528385206008840401805463ffffffff60079095166004026101000a948502191660e08a901c94909402939093179092559390925287905281546001600160a01b031916179055836200078e8162000f7e565b94505050508080620007a09062000e07565b91505062000658565b6000815111620007cc5760405163092d2fe560e41b815260040160405180910390fd5b6000805160206200120a8339815191526001600160a01b038316156200080557604051631be65fe560e21b815260040160405180910390fd5b60005b82518110156200088057600083828151811062000829576200082962000dc5565b6020908102919091018101516001600160e01b031981166000908152918590526040909120549091506001600160a01b031662000868848284620009f3565b50508080620008779062000e07565b91505062000808565b50505050565b6001600160a01b038216620008ba57805115620008b65760405163c21b1ab760e01b815260040160405180910390fd5b5050565b8051600003620008dd57604051633011e86160e21b815260040160405180910390fd5b6001600160a01b0382163014620008f957620008f98262000d4f565b600080836001600160a01b03168360405162000916919062000faf565b600060405180830381855af49150503d806000811462000953576040519150601f19603f3d011682016040523d82523d6000602084013e62000958565b606091505b509150915081620008805780511562000987578060405162461bcd60e51b8152600401620004f2919062000fcd565b604051633a18f8dd60e01b815260040160405180910390fd5b620009ab8162000d4f565b6002820180546001600160a01b0390921660008181526001948501602090815260408220860185905594840183559182529290200180546001600160a01b0319169091179055565b6001600160a01b03821662000a2757604051622902d360e91b81526001600160e01b031982166004820152602401620004f2565b306001600160a01b0383160362000a5e5760405163069731c560e41b81526001600160e01b031982166004820152602401620004f2565b6001600160e01b03198116600090815260208481526040808320546001600160a01b0386168452600180880190935290832054600160a01b9091046001600160601b0316929162000aaf9162000fe9565b905080821462000ba8576001600160a01b0384166000908152600186016020526040812080548390811062000ae85762000ae862000dc5565b600091825260208083206008830401546001600160a01b038916845260018a019091526040909220805460079092166004026101000a90920460e01b92508291908590811062000b3c5762000b3c62000dc5565b600091825260208083206008830401805463ffffffff60079094166004026101000a938402191660e09590951c929092029390931790556001600160e01b03199290921682528690526040902080546001600160a01b0316600160a01b6001600160601b038516021790555b6001600160a01b0384166000908152600186016020526040902080548062000bd45762000bd462001005565b60008281526020808220600860001990940193840401805463ffffffff600460078716026101000a0219169055919092556001600160e01b03198516825286905260408120819055819003620005ba57600285015460009062000c3a9060019062000fe9565b6001600160a01b038616600090815260018089016020526040909120015490915080821462000cf057600087600201838154811062000c7d5762000c7d62000dc5565b6000918252602090912001546002890180546001600160a01b03909216925082918490811062000cb15762000cb162000dc5565b600091825260208083209190910180546001600160a01b0319166001600160a01b03948516179055929091168152600189810190925260409020018190555b8660020180548062000d065762000d0662001005565b60008281526020808220830160001990810180546001600160a01b03191690559092019092556001600160a01b0388168252600189810190915260408220015550505050505050565b803b80620008b657604051633c11a9c560e21b815260040160405180910390fd5b80516001600160a01b038116811462000d8857600080fd5b919050565b6000806040838503121562000da157600080fd5b62000dac8362000d70565b915062000dbc6020840162000d70565b90509250929050565b634e487b7160e01b600052603260045260246000fd5b634e487b7160e01b600052602160045260246000fd5b634e487b7160e01b600052601160045260246000fd5b60006001820162000e1c5762000e1c62000df1565b5060010190565b60005b8381101562000e4057818101518382015260200162000e26565b50506000910152565b6000815180845262000e6381602086016020860162000e23565b601f01601f19169290920160200192915050565b60006060808301818452808751808352608092508286019150828160051b8701016020808b0160005b8481101562000f4c57898403607f19018652815180516001600160a01b0316855283810151898601906003811062000ee857634e487b7160e01b600052602160045260246000fd5b868601526040918201519186018a905281519081905290840190600090898701905b8083101562000f365783516001600160e01b031916825292860192600192909201919086019062000f0a565b5097850197955050509082019060010162000ea0565b50506001600160a01b038a1690880152868103604088015262000f70818962000e49565b9a9950505050505050505050565b60006001600160601b038281166002600160601b0319810162000fa55762000fa562000df1565b6001019392505050565b6000825162000fc381846020870162000e23565b9190910192915050565b60208152600062000fe2602083018462000e49565b9392505050565b8181038181111562000fff5762000fff62000df1565b92915050565b634e487b7160e01b600052603160045260246000fd5b6101df806200102b6000396000f3fe6080604052600436106100225760003560e01c806354353f2f146100e557610029565b3661002957005b600080356001600160e01b03191681527fc8fcad8db84d3cc18b4c41d551ea0ee66dd599cde068d998e57d5e09332c131c602081905260409091205481906001600160a01b0316806100c15760405162461bcd60e51b815260206004820181905260248201527f4469616d6f6e643a2046756e6374696f6e20646f6573206e6f74206578697374604482015260640160405180910390fd5b3660008037600080366000845af43d6000803e8080156100e0573d6000f35b3d6000fd5b3480156100f157600080fd5b506100fa610110565b6040516101079190610130565b60405180910390f35b60606040518060600160405280602b815260200161017f602b9139905090565b600060208083528351808285015260005b8181101561015d57858101830151858201604001528201610141565b506000604082860101526040601f19601f830116850101925050509291505056fe5448495320495320414e204558414d504c45204f4620414e20494d4d555441424c452046554e4354494f4ea2646970667358221220a93d6eb2c8a41cabf52811ea1f4d05e00dae92609d89dcc1d5e60fd39e6a346a64736f6c63430008130033c8fcad8db84d3cc18b4c41d551ea0ee66dd599cde068d998e57d5e09332c131c",
    "sourcePath": "/home/victoria/Documents/EIP2535-Auction-Diamond-Contract/contracts/Diamond.sol",
    "compiler": {
        "name": "solc",
        "version": "0.8.19+commit.7dd6d404"
    },
    "functionHashes": {
        "example()": "54353f2f"
    },
    "gasEstimates": {
        "creation": {
            "codeDepositCost": "95800",
            "executionCost": "infinite",
            "totalCost": "infinite"
        },
        "external": {
            "": "infinite",
            "example()": "infinite"
        }
    }
}